:100000000C94ED010C9434020C9434020C943402E0
:100010000C9434020C9434020C9434020C94340288
:100020000C9434020C9434020C94D11D0C94A51E33
:100030000C94DC140C9434020C9434020C943402AE
:100040000C9434020C9434020C9434020C94340258
:100050000C9434020C9427150C9434020C94340242
:100060000C9434020C9434020C9434020C94340238
:100070000C9434020C9434020C9434020C94340228
:100080000C9434020C9434020C9434020C94340218
:100090000C9434020C9434020C9434020C94340208
:1000A0000C9434020C9434020C9434023500290070
:1000B0003A003B003C003D003E003F0040001E0077
:1000C0001F0020002100220023002400250026001C
:1000D0002B0014001A000800150017001C0018005F
:1000E0000C00390004001600070009000A000B008C
:1000F0000D000E00E1002C001D001B000600190081
:10010000050011001000E000E300E20000002C00F8
:1001100000002C00000000004100420043004400A9
:100120004500460047004800000027002D002E0033
:100130002C002A0049004A004B0000001200130066
:100140002F00300031004C004D004E0000000F0029
:100150003300340000002800000000000000000010
:10016000360037003800E1002C000000520000008B
:1001700000002C00E600E7007600E400500051008B
:100180004F0000000100010001000100010001001A
:100190000100010001000100010001000100010057
:1001A0000100010001000100010001000100010047
:1001B0000100010001000100010001000100010037
:1001C0000100010001000100010001000100010027
:1001D0000100010001000100010001000100010017
:1001E000010001000000010000000100000000000B
:1001F00001000100010001000100010001000100F7
:1002000001000100010001000100010001000100E6
:1002100001000100010001000100010001000100D6
:1002200001000100010001000100010000000100C7
:1002300001000100010001000100010001000100B6
:1002400001000100010001000100010001000100A6
:100250000100010001000100010001000403300061
:1002600000000A036100620074006B0000001C03C0
:100270006E0069006300650061006E006400630049
:100280007200650061006D0079000000040309043C
:1002900009023B00020100A0FA0904000001030169
:1002A0000100092111010001224000070581030816
:1002B000000A0904010001030000000921110100E6
:1002C0000122BC000705820320000A120110010070
:1002D000000008434E01000100010203010501096D
:1002E00002A10185020901A10005091901290515CD
:1002F00000250195057501810295017503810105B0
:1003000001093009311581257F950275088106099B
:10031000381581257F950175088106050C0A38027C
:100320001581257F950175088106C0C005010980EA
:10033000A101850319012AB700150126B70095010F
:1003400075108100C0050C0901A101850419012A5D
:10035000A002150126A002950175108100C00501BB
:100360000906A1018505050719E029E71500250102
:100370009508750181020507190029EF150025016F
:1003800095F075018102050819012905950575018A
:100390009102950175039101C005010906A10105AE
:1003A0000719E029E71500250195087501810295D7
:1003B00001750881010507190029FF150026FF00B6
:1003C000950675088100050819012905950575012F
:1003D0009102950175039101C00011241FBECFEF5A
:1003E000DAE0DEBFCDBF04B603FE27C08091D402A1
:1003F0009091D502A091D602B091D7028730904B50
:10040000A740B04BD1F41092D4021092D5021092B2
:10041000D6021092D70214BE84B7877F84BF0FB66E
:10042000F894A89580916000886180936000109294
:1004300060000FBEE0E0F8E3099511E0A0E0B1E054
:10044000E2EEF1E402C005900D92AC38B107D9F7A5
:1004500022E0ACE8B1E001C01D92A43DB207E1F793
:100460000E94021B0C94C7200C940000089508956C
:1004700081E0089581E008950C943A0208950C9467
:100480003E021F93CF93DF9300D000D00F92CDB7E1
:10049000DEB749835A836B833091B20189819A8197
:1004A00031111DC06623B9F02223A9F00E94D91191
:1004B000182F682F89819A810E94851169817A811C
:1004C000812F0F900F900F900F900F90DF91CF9191
:1004D0001F910C94F1020E94B111182FEFCF0E94CE
:1004E000D91169817A81EDCFFC01262F408151819C
:1004F0006281738184810C944102CF93DF93EC017C
:1005000060E00E947402BE01DF91CF910C943F0223
:100510000E941D13811102C00E94C4130C94FC049C
:100520000C94FE0408950C94920281E008950C94BA
:100530009502CF93C82F0E9493028C2FCF910C94D9
:10054000970208950E94EF0C0E94A1022FEF84E30E
:100550009CE0215080409040E1F700C000000C94E6
:100560004B150F931F93CF93DF93EC0161E00E9433
:1005700074028C01BE010E943C02882329F1BE0155
:10058000C8010E9484068823F9F0BE01C8010E94B8
:10059000C5068823C9F0BE01C8010E94E807882368
:1005A00099F08A81882339F001158CE5180751F0FC
:1005B0000E3D1C4579F0CE01DF91CF911F910F9137
:1005C0000C9438020E94A20280E0DF91CF911F912B
:1005D0000F9108950E94C413F7CF90E080E0089532
:1005E0000895972F70E029E0929F600D711D1124EE
:1005F000FB019CE6899FE00DF11D1124EE0FFF1F0A
:10060000E455FF4F859194910895FC01EE0FFF1F73
:10061000E45AFD4F859194910895CF93DF930E9402
:10062000F1020E942204EC01811520E5920708F0F6
:1006300042C0811530E4930708F0BDC0883E9105A3
:1006400028F5803E910508F09DC0883A910588F410
:10065000853A910508F08FC08130910509F492C068
:10066000009709F48FC0049708F08CC0D0E0C0E078
:1006700089C08F3B910508F489C0805C9109C03C1A
:10068000D105A0F30E940503EC017CC081159042C6
:1006900050F4C11581E0D80708F074C0C03FD105FF
:1006A00028F3D0656FC0C11590E3D90708F079C071
:1006B000CE019F70E7CF811525E5920758F581158A
:1006C00034E5930708F0A6C0811542E5940750F47D
:1006D000C11581E5D80708F471C0DC2FCC27C16FA4
:1006E000D06A50C0982F969596959E012370332717
:1006F000C115D34508F07FC0C1E0D0E002C0CC0FE7
:10070000DD1F2A95E2F720E2929FC0011124C82B39
:10071000D92B6FC0C11589E5D807A8F4C11598E594
:10072000D90708F07CC0C11526E5D20708F09ECF96
:100730008C2F0E94B904C82FD0E0DC2FCC27CC2707
:10074000DF71D0621FC0C1153AE5D30708F46CC051
:10075000CE0190568115904208F088CF8D2F8F7171
:100760000E94B90490E0982F882788279F719C01E8
:100770002C2BE901E6CFC55AD0E0CD5BDE4FC88116
:10078000D0E0D064CE01DF91CF910895C85AD0E077
:10079000CC0FDD1FCB5EDE4F0990D881C02DD46415
:1007A000F1CFCE019927D3FF03C0EC01D86CEACF7B
:1007B000EC01D06CE7CFDF70D06AE4CFCE01E4E08B
:1007C00096958795EA95E1F783702C2F26952695C7
:1007D000237090E2299F90011124382B8C2F837075
:1007E000C1E0D0E002C0CC0FDD1F8A95E2F7C22B3A
:1007F000D32BDC68C7CFC1E0D0E002C0CC0FDD1F37
:100800002A95E2F730E2939FC0011124C82BD92B1F
:10081000DA68B8CFD82FCC27C46FD06AB3CFDC2F1B
:10082000CC27C06FD06AAECF8C2F8F700E94B904D6
:1008300034E0D695C7953A95E1F7CF709C2FEC013F
:10084000D069A0CF82389105B1F1B0F48133910520
:1008500009F475C048F48932910509F469C08A32F7
:10086000910509F473C008958533910509F459C0C1
:100870008933910501F10895833E9105A9F138F47A
:10088000803E9105F9F0823E910549F10895863E3A
:100890009105A9F1873E9105C9F1843E910519F5AD
:1008A0002091C60221FF1FC08091C50284FD14C0A3
:1008B00087EE90E008952091C5022370A1F080EEAC
:1008C00090E008952091C50220FD47C03091C602F6
:1008D00030FF09C024FF44C090E080E004C02091B4
:1008E000C50222FDF7CF08952091C50222FD3BC02D
:1008F0003091C60230FDE3CF24FFF5CFEDCF20913C
:10090000C50223FFF0CF24FDE7CFD2CF2091C5024F
:1009100023FD2CC03091C60231FFEECF84EE90E073
:1009200008952091C50225FFDECF89E290E0089569
:100930002091C50225FFD7CF85E390E0089520914F
:10094000C50226FFD0CF8AE290E008952091C5022B
:1009500026FFC9CF81E390E0089589E390E00895F0
:1009600083EE90E0089582EE90E0089586EE90E0A8
:1009700008959091C50292FF06C0282F2871283053
:10098000F9F4877F846093FF06C0282F28712831EF
:10099000F1F4877E84612091C60220FF06C0382FC3
:1009A00038713830D9F4877F816021FF06C0282F45
:1009B00028712831D1F4877E816194FD877E089566
:1009C000282F24712430F9F68B7F8860DCCF282F04
:1009D0002471243101F78B7E8861DDCF382F31718E
:1009E000313019F78E7F8860E0CF282F21712131B7
:1009F00021F78E7E8861E1CF0C9436020C94370289
:100A0000E82FF0E0EE0FFF1FE755FD4F8081918149
:100A10000895089580EA8A95F1F70895AFE4B1E06A
:100A200061E070E08D91E82FE295EF70F0E041A178
:100A30008F709B0101C0220F8A95EAF7922F909543
:100A4000942391A382A1822B82A381E0AB35B807C6
:100A500049F7A6E4B1E061E070E08D91E82FE295FE
:100A6000EF70F0E041A18F709B0101C0220F8A95C9
:100A7000EAF7922F9095942391A382A1822B82A3CF
:100A800081E0AF34B80749F7E1E9F2E0A9EAB2E062
:100A900089EA92E0119211921D921D928E179F0782
:100AA000C9F78CE00E94DD050C9488028F929F921A
:100AB000AF92BF92CF92DF92EF92FF920F931F936C
:100AC000CF93DF938FE4E82E81E0F82E01E912E066
:100AD000912CAA24A394B12CF70181917F01C82FF6
:100AE000C295CF70D0E099A18F70650101C0CC0C88
:100AF0008A95EAF7892F8C2989A38AA18C2C809466
:100B000088218AA30E940A05E6E4F1E050E040E073
:100B100030E020E06191A62FA295AF70B0E09096F2
:100B20008C9190E06F7002C0959587956A95E2F779
:100B300080FD3EC0C501042E02C0880F991F0A9493
:100B4000E2F7282B392B4F5F5F4F4930510511F7E2
:100B500089A1882289A28AA1C82ACAA2F801808113
:100B600091812817390739F13183208381E0982A50
:100B70000E5F1F4FFBE5EF16F1E0FF0609F0ACCF6B
:100B8000292D4CE069EA72E081E992E00E94DE05DD
:100B90000E949002892DDF91CF911F910F91FF90BC
:100BA000EF90DF90CF90BF90AF909F908F9008957F
:100BB00090E080E0C6CF80E0DACF0895FF920F93F7
:100BC0001F93CF93DF93F82E092F162FD72FC42F03
:100BD000222349F081E080938E010E940C159093AE
:100BE0008D0180938C0180918E018823A1F08091EA
:100BF0008C0190918D010E941815069760F0EF2DE1
:100C0000F02FA12FBD2F90E080E0D0E08C179D0742
:100C100044F010928E01DF91CF911F910F91FF90C0
:100C20000895219131912D933D930196EFCF0F932C
:100C30001F93CF93DF93C62FD42F022FFC01828105
:100C40008823C9F0609391010E940C159093900144
:100C500080938F0180E28C0F883008F050C0C770FD
:100C600081E001C0880FCA95EAF7DF91CF911F910B
:100C70000F910C94730A10919101161335C0809155
:100C80008F01909190010E941815883C910560F5A4
:100C9000C0E2CD0F1D17B9F080E2810F883040F41B
:100CA000177081E001C0880F1A95EAF70E947A0A4E
:100CB000C83048F481E09D2F977001C0880F9A9545
:100CC000EAF70E94730A802F0E94600AC830B8F4C5
:100CD000D77081E001C0880FDA95EAF7DF91CF91F4
:100CE0001F910F910C947A0A80E28C0F883038F4AF
:100CF000C77081E001C0880FCA95EAF7EFCFDF9196
:100D0000CF911F910F9108959C01CB01233F4CE59A
:100D1000340731F190F4283DFCE53F07E9F0293D27
:100D20004CE5340769F1273D3C4579F426E241EE74
:100D300061EE0E94170680E00895253FFCE53F071D
:100D4000B9F090F0263F3C45B9F0FC018281882340
:100D5000D1F010929101089527E245EE65EEE9CFBA
:100D600026E241EE60EEE5CF27E245EE64EEE1CF0C
:100D700026E241EE62EEDDCF27E245EE66EED9CF08
:100D800028E241E0EBCF81E00895CF93DF93EC01BF
:100D9000FB018281882309F419C1C230FCE5DF0719
:100DA000C0F1C6319CE5D90730F09E012A5F3C4571
:100DB0002930310570F50E943A139093C602809352
:100DC000C502C031ECE5DE0709F4CFC008F05BC016
:100DD000C8308CE5D80709F4B6C088F5C430ECE516
:100DE000DE0709F4A8C0C0F4C2308CE5D80709F4C6
:100DF0009CC08091C5028260C330DC4509F498C074
:100E00008091C5029091C6020E9448130E94EF0C87
:100E100080E0DF91CF9108958091C5028061C63056
:100E2000ECE5DE0709F484C08091C5028860C73014
:100E3000DC4508F47DC08091C502806279C0CC3069
:100E40008CE5D80709F489C070F48091C5028C60E4
:100E5000CA30ECE5DE0709F46BC008F478C0809175
:100E6000C5028E7F65C0CE308CE5D80709F479C005
:100E70008091C5028B7FCF30DC4508F459C080914A
:100E8000C5028F7E55C0CB3FECE5DE0709F457C0A5
:100E900030F5C3318CE5D80709F46FC078F4C1315F
:100EA000ECE5DE0709F465C0C231DC4509F0A8CFE6
:100EB0000E94EF0C8091C5028F773AC0C5318CE556
:100EC000D80709F462C008F476C08091C602816038
:100ED000CA3FDC4509F094CF8093C60291CFCF3F43
:100EE000FCE5DF0709F44DC088F48091C6028D7FD0
:100EF000CD3F9CE5D90781F38091C6028E7FCE3F1E
:100F0000DC4550F38091C6028360E6CFC130FDE539
:100F1000DF0709F459C008F444C080E0C230DD4561
:100F200009F06ECF0E94C6136BCF8091C50281601D
:100F30008093C50265CF8091C5028460F9CF80910E
:100F4000C6028260C9CF8091C5028064F1CF0E9441
:100F5000EF0C8091C5028068EBCF8091C5028D7F38
:100F6000E7CF8091C502877FE3CF8091C5028F7D57
:100F7000DFCF8091C5028F7BDBCF8091C502837F5D
:100F8000D7CF8091C6028C7FA7CF8091C50282FB0C
:100F9000992790F921E0922790FB82F990FB83F941
:100FA000C7CF8091C602982F909591708E7F892B24
:100FB00090FB81F991CF0E94EF0C9091C502892F8F
:100FC00097FB87F98058B4CF81E0ACCF81E021CF87
:100FD000CF93DF93EB0186319C4511F50E946E1291
:100FE0009A81992399F08A7A91E009F490E090939C
:100FF0009201811109C089E20E9449120E94BA122D
:1010000080E0DF91CF91089585E3F6CF8091920142
:10101000811104C089E20E945012F0CF85E3FBCF1A
:1010200081E0EFCF90939801809397010895E0912C
:101030009701F0919801309721F00190F081E02D17
:10104000099480E00895E0919701F091980130971C
:1010500099F020911401222359F02091C50227FF15
:1010600007C0DC012C9111962C93119725E02C934D
:101070000280F381E02D09940895E0919701F091A9
:101080009801309739F022E0DC012C930480F5813F
:10109000E02D09940895209195013091960128172B
:1010A000390771F09093960180939501E091970133
:1010B000F0919801309721F00680F781E02D099496
:1010C000089520919301309194012817390771F008
:1010D0009093940180939301E0919701F09198018E
:1010E000309721F00084F185E02D0994089585B7AB
:1010F000806885BF85B7806885BF08950895089585
:101100000C947E0808950C9482080E9477080E942F
:101110007F080C94800881E008950C948B080E944D
:1011200003150E940E050E94BA150C9483087F9245
:101130008F929F92AF92BF92CF92DF92EF92FF92E7
:101140000F931F93CF93DF93CDB7DEB72A970FB6D8
:10115000F894DEBF0FBECDBF0E9456050E948D08D9
:10116000882309F471C04AE9A42E41E0B42E10E0AE
:1011700000E0702E802F0E9400056C01F501819027
:1011800091905F018816990609F458C080915E021B
:1011900081FD0E94090580E0EE24E394F12C8C246B
:1011A0009D2494012E213F21232B09F441C08E83DD
:1011B0007F82CE20DF2081E0CD2809F480E088877F
:1011C0000E940C158160782F9A8789874E815F81F4
:1011D00068858A850E944909000F111FF801E656AB
:1011E000FE4F80819181E826F926F182E0820E94FB
:1011F00049180E941708909199018917B1F10E942E
:101200001708809399012A960FB6F894DEBF0FBE97
:10121000CDBFDF91CF911F910F91FF90EF90DF90A5
:10122000CF90BF90AF909F908F907F900C94990239
:101230008F5FEE0CFF1C893009F0B3CF0F5F1F4F9B
:101240000C30110509F095CF8FEF89838A831B82BB
:101250000E940C158160782F9D838C8349815A816F
:101260006B818D810E944909C2CF2A960FB6F894EE
:10127000DEBF0FBECDBFDF91CF911F910F91FF90C9
:10128000EF90DF90CF90BF90AF909F908F907F9026
:101290000895CF93DF93CDB7DEB72B970FB6F894B1
:1012A000DEBF0FBECDBF4F83588769877A878B8794
:1012B0001E821D8285E0FE013796DE0111960190A7
:1012C0000D928A95E1F749815A816B817C818D81EC
:1012D0009E812B960FB6F894DEBF0FBECDBFDF9177
:1012E000CF910C94650FFC01808191810C941B12AD
:1012F000CF93C82F882309F48BC08238C1F40E9491
:10130000170881FD85C089E30E9449120E94BA1224
:101310002FEF81EE94E0215080409040E1F700C033
:10132000000089E30E945012CF910C94BA128338C6
:10133000A1F40E94170880FD6BC083E50E9449124A
:101340000E94BA122FEF81EE94E02150804090402D
:10135000E1F700C0000083E5E5CF8438A1F40E94E6
:10136000170882FD55C087E40E9449120E94BA12F4
:101370002FEF81EE94E0215080409040E1F700C0D3
:10138000000087E4CFCF8CEF8C0F813A90F46C2F64
:1013900080910001909101010E94DF13882329F0C0
:1013A0008C2F0E9450120E94BA128C2F0E94491258
:1013B000BBCF80E28C0F883048F4C77081E001C059
:1013C000880FCA95EAF70E947112AECFEBE5EC0FD9
:1013D000E33040F4F0E0E757FE4F808190E0CF919A
:1013E0000C944B08E8E5EC0FE73150F4F0E0EE0F19
:1013F000FF1FE55AFE4F80819181CF910C946108C7
:10140000C03F30F08C2F0E945717CF910C943E189C
:10141000CF910895882309F452C0823871F40E9454
:10142000170881FF4CC089E30E9449120E94BA123A
:1014300089E30E9450120C94BA12833859F40E9426
:10144000170880FF3CC083E50E9449120E94BA122F
:1014500083E5EFCF843859F40E94170882FF2FC02C
:1014600087E40E9449120E94BA1287E4E2CF9CEFFF
:10147000980F913AF0F290E2980F983050F48770FC
:1014800091E001C0990F8A95EAF7892F0E9477129F
:10149000D2CF9BE5980F933020F490E080E00C943D
:1014A0004B0898E5980F973120F490E080E00C9479
:1014B0006108803F20F00E94BF170C943E180895E9
:1014C000CF93C82F0E947809C93349F42FEF87EED4
:1014D00093E0215080409040E1F700C000008C2F45
:1014E000CF910C940A0A882321F00E9471120C9467
:1014F000BA120895882321F00E9477120C94BA1230
:101500000895BF92CF92DF92EF92FF920F931F93B5
:10151000CF93DF936C01D62FC72FFC010581029575
:101520000F70128111110E948E120E946712E82E14
:10153000882391F01123D1F08C2F807F803421F00B
:1015400080E28D0F883090F082E00E9405130E94A7
:10155000671291E0E82EE926BC2EB2949FE0B922F2
:10156000EB2DF0E0E753FF4D0C946B20E12CF4CF12
:101570000C2F0F70C07F11F00295007F1123A9F08E
:10158000002359F080E28D0F883010F0D11109C08E
:10159000802F0E9471120E94BA128D2F0E9478092A
:1015A00014C0802F0E948112F6CF8D2F0E940A0A4C
:1015B000002359F080E28D0F883010F0D1112CC03B
:1015C000802F0E9477120E94BA122B2D2850330BC5
:1015D0002430310520F40E9417080E949902EE2061
:1015E00009F49EC10E94631280FD9AC1F601128225
:1015F0000E945D120E94E910C6010E94B10C0E9477
:101600005D12DF91CF911F910F91FF90EF90DF90CE
:10161000CF90BF900C940A11802F0E948712D3CFD5
:10162000FC2FFF70FF2EC07FC03219F0F29480EFC4
:10163000F822DD2369F0D13049F1112391F1002323
:1016400051F1F601858180FFA8CF8F70858323C07B
:10165000112381F0011106C00E94A1128F290E945E
:10166000730AB3CF0130C1F70E94A1128F290E94E3
:10167000A712ABCF011106C00E94B0128F2D0E949D
:101680007A0AA3CF013009F4A0CFF6CF112329F0B5
:10169000063008F09ACF8F2DE2CF053008F095CFB5
:1016A000EDCF002359F3D93349F4FFEF27EE33E0B0
:1016B000F15020403040E1F700C000008D2F0E9423
:1016C0000A0A83CF8C2F86958695837069F08130C6
:1016D00009F07BCF8D2F9C2F9370111102C090E0E9
:1016E00080E00E94610871CF8D2F9C2F93701111A3
:1016F00002C090E080E00E944B0867CF8D2F11233D
:1017000029F00E9457170E943E185FCF0E94BF1712
:10171000FACF8C2F837009F041C0111156CF4D2F95
:10172000429546954770440F440F0D2F0F7010E0FF
:1017300030E020E0042E04C0000F111F221F331FD1
:101740000A94D2F760E070E0CB01D4FF0FC06FE0E5
:1017500070E080E090E004C0660F771F881F991F3B
:101760004A95D2F76095709580959095C695C695E7
:10177000C370602B712B822B932BC23049F058F42D
:10178000C13019F00E949B1020CF0E9489101DCFFC
:101790000E94AD101ACF0E94871017CF8695112393
:1017A00011F08C2F8170882309F40FCF4D2F4295B3
:1017B00046954770440F440F0D2F0F7010E030E036
:1017C00020E0042E04C0000F111F221F331F0A94B3
:1017D000D2F760E070E0CB01D4FF0FC06FE070E0A3
:1017E00080E090E004C0660F771F881F991F4A951C
:1017F000D2F76095709580959095C695C695C37003
:10180000602B712B822B932BC23049F058F4C130DE
:1018100019F00E946011D9CE0E944E11D6CE0E94BE
:101820007211D3CE0E94C310D0CECF70112329F0F5
:101830008C2F0E94E9108D2F12CF8D2F0E947A0AD3
:101840008C2F0E940A11C1CED23F89F160F4D03FA3
:10185000C9F0D13F29F1112309F442C001119DCEF5
:101860008C2F8F7121C0D33F39F1D43FA1F71123C1
:1018700069F1CF718C2F0E94E91063E08C2F0E94D8
:10188000F012A3CE112341F0053008F09ECE8C2F2C
:101890008F710E942D1199CE063008F096CEF7CFA9
:1018A0008C2F8F71112369F20E94E9108ECE8C2F3C
:1018B0008F711123C9F3C5CF112329F08C2F8F719C
:1018C0000E94D41082CE0E94CF107FCE81E00E9471
:1018D0000513023008F479CE82E00E94051375CE1C
:1018E000002359F0D93309F0E9CE8FEF97EEE3E00A
:1018F00081509040E040E1F7DFCE8C2F8F71A1CF77
:101900004C2F4F706D2FC6010E94ED020E94FF0FF9
:101910005CCE4C2F4F706D2FC6010E94F00255CE49
:10192000DF91CF911F910F91FF90EF90DF90CF90BB
:10193000BF9008950F931F93CF93DF93EC016881BD
:1019400079818A810E9425128C010E9484110E9453
:101950008610B801CE01DF91CF911F910F910C94A9
:10196000810ACF93DF93EC018B819C81892B29F035
:101970008881998189238F3F59F4DF91CF91089510
:10198000CE010E949A0CCE01DF91CF910C947D0282
:10199000CE010E94B1028111F3CF0E946712882309
:1019A00061F38A81882349F382E0DF91CF910C941F
:1019B00005130E948E120E949E120E94BA120E946B
:1019C00063190E943E1890E080E00E944B0890E06E
:1019D00080E00C9461080E9457120C94D90C0E946C
:1019E0007E120C94EB0CE92FE295EF70E250EE3092
:1019F00070F4F0E0E752FF4D0C946B20803F19F03B
:101A000020F4883E20F481E00895843FE1F380E0F3
:101A10000895883EC0F3813FD1F7F5CF93FB882727
:101A200080F908950E941B120C94F30CCF93DF935E
:101A300000D000D00F92CDB7DEB70F900F900F906F
:101A40000F900F90DF91CF910895CF93DF9300D047
:101A500000D000D0CDB7DEB726960FB6F894DEBF23
:101A60000FBECDBFDF91CF9108951F93CF93DF932A
:101A7000C091B30116E08091B4018C1304C0DF91D2
:101A8000CF911F910895D0E01C9FF0011D9FF00D94
:101A90001124EB54FE4F4081518162817381848116
:101AA00095810E94250D2196C770E5CF4091E501F3
:101AB0005091E6016091E7017091E8018091E901A0
:101AC0009091EA010C94250D1F93CF93DF938091A1
:101AD000EA01807FA9F48091E701882389F0809151
:101AE000B301C091B4016091E5017091E601A0914C
:101AF000E801B091E901D62FD72316E0C81304C03E
:101B0000DF91CF911F91089590E0109711F0DF3F82
:101B100019F401968770F2CF189F9001199F300D2C
:101B20001124F901EB54FE4F41814713F2CF40815C
:101B30004613EFCF42814111ECCF438154814A1BC0
:101B40005B0B483C510528F78091EA018F7080615A
:101B50008093EA01F901E654FE4F80818F70806125
:101B6000808385EE91E00E94B10CDF91CF911F91AF
:101B70000C94350DAF92BF92CF92DF92EF92FF920D
:101B80000F931F93CF93DF93CDB7DEB761970FB657
:101B9000F894DEBF0FBECDBF8C0185E0F801DE01F9
:101BA0001D9601900D928A95E1F7F80140815181CF
:101BB000E28085EEC82E81E0D82E6091E801709118
:101BC000E9016115710509F461C19091E501209168
:101BD000E601892F82238F3F09F458C1A380B48086
:101BE000F090E701F501E61BF70BFF2009F4FCC0BC
:101BF0008091EA01382F307FE83CF10508F0B2C04F
:101C0000311179C0FE2C251323C0941321C0E1109B
:101C10001FC08F7080618093EA010E94560DC6013B
:101C20000E94B10C8091EA01F80185838F2D6196A5
:101C30000FB6F894DEBF0FBECDBFDF91CF911F91DD
:101C40000F91FF90EF90DF90CF90BF90AF900895ED
:101C5000AB2829F0842F85238F3F09F033C180E022
:101C6000F82FF170DF2E80FF3CC08091B3012091EE
:101C7000B40136E0821315C04D875E878D859E8541
:101C80000E941B12292F22952F702230F0F0243051
:101C900018F59F70F1F0F8019581907FD1F4D12C67
:101CA0001EC090E0389FF001399FF00D1124EB54D5
:101CB000FE4F6181651306C06081641303C06281B9
:101CC0006E110FC001968770D5CF9F7011F08823D9
:101CD00031F3805E883018F3C8010E94B10CFD2CEE
:101CE000A5CFEE2009F4A2CF8091EA018160809314
:101CF000EA01F12C9BCF251306C0941304C0F80110
:101D0000EE2009F48DC04D875E878D859E850E94EB
:101D1000120D882319F1EE2009F18091EA01803239
:101D200070F02091E5013091E60138872F83198604
:101D3000BB86AA868C87CE0107960E94B10C86E0EE
:101D4000F801A5EEB1E001900D928A95E1F70E94AD
:101D5000640D0E94560DFF24F39468CFC8010E94C1
:101D6000B10CF9CF311113C07A2DB98AA88A6E2D22
:101D700089890E94160D85EE91E00E94B10C86E0E3
:101D8000F60111928A95E9F70E94560DB2CF2513FC
:101D90000FC094130DC0E1100BC0F8018583C8017A
:101DA0000E94B10C86E0F60111928A95E9F73ECFC8
:101DB0004D875E878D859E850E94120D882371F266
:101DC000EE2061F28091EA01803208F4B8CF2091D0
:101DD000E5013091E6013A8329831B82BD82AC8202
:101DE0008E83CE010196A9CFE83CF10508F041C0F1
:101DF000FE2CEE2009F4B2CF25132AC0941328C07C
:101E00008091EA0180FD1BC0982F907FC1F0F801FE
:101E10008583903F31F0982F907F905F8F70892B52
:101E20008583C8010E94B10C86E0F801A5EEB1E0FF
:101E300001900D928A95E1F70E94560DF7CE86E04B
:101E4000F801A5EEB1E001900D928A95E1F7EECE92
:101E50004D875E878D859E850E94120D81116FCF03
:101E60008091EA0181608093EA01C8010E94B10C6F
:101E7000DDCE7A2DB98AA88A6E2D89890E94160D29
:101E800086E0F60111928A95E9F7D6CFEE2009F4A3
:101E900065CF4D875E878D859E850E94120DF82E39
:101EA000882309F45BCF86E0F801A5EEB1E001904C
:101EB0000D928A95E1F785EE91E00E9473090E94E8
:101EC000640DBACF81E08E25CBCE1F93CF93DF93E5
:101ED000CDB7DEB72C970FB6F894DEBF0FBECDBFDF
:101EE0004F83588769877A878B879C87CE010796AF
:101EF0000E94BA0D882369F08A859B85892B39F069
:101F00004F815885842F85238F3F09F071C016E0DB
:101F10005FC086E0FE013796DE01119601900D92BA
:101F20008A95E1F78A859B85892B89F388859F812E
:101F300089238F3F61F32091B40130E0C9010196FC
:101F4000877099274091B3014817190671F40E94D0
:101F5000EF0C1092B4011092B30186E0E5EEF1E0CF
:101F6000DF011D928A95E9F7D2CF96E0929FD001CA
:101F7000939FB00D1124AB54BE4FFE0131960190DA
:101F80000D929A95E1F78093B4010E94350DBFCF71
:101F9000819FC00111248B549E4F0E94BA0D88234B
:101FA000E9F0E091B3011E9FF0011124EB54FE4FC4
:101FB0004081518162817381848195810E94250DC8
:101FC0008091B30190E00196877099278093B301C7
:101FD0008091B3019091B4018913DACF2C960FB69A
:101FE000F894DEBF0FBECDBFDF91CF911F91089552
:101FF00069857A858B859C850E94250D88CFEF9217
:10200000FF920F931F93CF93DF938C01892B81F065
:10201000F12CEE24E394E8012196F80184918437B1
:1020200070F4843008F05FC08130B1F08230A1F1EB
:10203000DF91CF911F910F91FF90EF900895853719
:1020400009F44CC008F43DC09CE7980F903780F726
:102050008F770E940A0A49C00E5F1F4FFE018491CC
:1020600090E2980F983060F48770FE2D01C0FF0F4A
:102070008A95EAF78F2F0E9491120E94BA1202C02D
:102080000E9478098F2D815030F2EFE9FFE03197FF
:10209000F1F700C00000F7CF0E5F1F4FFE018491E3
:1020A00090E2980F983050F48770FE2D01C0FF0F1A
:1020B0008A95EAF78F2F0E949712DFCF0E940A0AB3
:1020C000E1CF0E5F1F4FFE01C491C150D8F28FE9DE
:1020D0009FE00197F1F700C00000F7CF0E5F1F4FA0
:1020E000FE01F490CFCF0E9478098E01CBCF0895E6
:1020F0000C9477100E94781060933502709336022A
:1021000080933702909338020C94D90C08950C9464
:102110007A100F931F93009135021091360220918F
:10212000370230913802602B712B822B932B1F9139
:102130000F910C947A100F931F9300913502109118
:1021400036022091370230913802602371238223B6
:1021500093231F910F910C947A100F931F9300916A
:1021600035021091360220913702309138026027F3
:102170007127822793271F910F910C947A100C944A
:1021800077100C94BF100E94C110609331027093BD
:10219000320280933302909334020C94D90C60E0A5
:1021A00070E0CB010C94C3100F931F9341E050E0FB
:1021B00060E070E08A019B0104C0000F111F221F24
:1021C000331F8A95D2F7C901B8011F910F910C9462
:1021D000C3100F931F9341E050E060E070E004C033
:1021E000440F551F661F771F8A95D2F780913102E1
:1021F00090913202A0913302B09134028A019B0186
:10220000082B192B2A2B3B2BC901B8011F910F91C9
:102210000C94C3100F931F9341E050E060E070E016
:1022200004C0440F551F661F771F8A95D2F7CB0154
:10223000BA0160957095809590950091310210914A
:1022400032022091330230913402602371238223C1
:1022500093231F910F910C94C3100F931F9341E090
:1022600050E060E070E004C0440F551F661F771F08
:102270008A95D2F78091310290913202A091330277
:10228000B09134028A019B01082719272A273B278E
:10229000C901B8011F910F910C94C3100F931F93A4
:1022A00000913102109132022091330230913402B8
:1022B000602B712B822B932B1F910F910C94C310C9
:1022C0000F931F930091310210913202209133023B
:1022D0003091340260237123822393231F910F9145
:1022E0000C94C3100F931F9300913102109132028E
:1022F000209133023091340260277127822793277F
:102300001F910F910C94C310089529E0929F800DA6
:102310001124982F977041E001C0440F9A95EAF775
:1023200086958695869595E0899FF0011124E55163
:10233000FE4F90E080E070E05191DF0111979B012A
:10234000082E02C0369527950A94E2F72170219550
:102350002527242325272C9301968530910561F7A5
:10236000089529E0929F800D1124982F97708695EB
:102370008695869525E0829FF0011124E551FE4F58
:1023800050E040E080E0219130E0092E02C0369517
:1023900027950A94E2F721703327042E01C0220FFB
:1023A0000A94EAF7822B4F5F5F4F4530510559F78A
:1023B0000895BF92CF92DF92EF92FF920F931F93F7
:1023C000CF93DF938C01C0903102D0903202E09025
:1023D0003302F09034028091350290913602A09140
:1023E0003702B0913802C82AD92AEA2AFB2ACFE15B
:1023F000D0E0BC2ED701C6010C2E04C0B695A7951F
:10240000979587950A94D2F780FD0EC0219788F79B
:10241000B12C8B2DDF91CF911F910F91FF90EF90F9
:10242000DF90CF90BF900895B8018C2F0E940D03CC
:10243000019761F3EECFCF93DF93EC010E94D911A6
:10244000BE01DF91CF910C940D031F93CF93DF93C7
:10245000EB019091B201992331F0CB01DF91CF9143
:102460001F910C941B12882379F0CB010E94D91183
:10247000182F682FCE010E948511BE01812FDF9198
:10248000CF911F910C940D03CB010E94B111182F15
:10249000F4CF682F80910001909101010C945F149A
:1024A000682F80910001909101010C946A14809131
:1024B0000001909101010C94751480913902859569
:1024C000859585950895809139028770089590913A
:1024D0003902977081E009F480E0089580915D02EF
:1024E000089590915D02892B80935D0208958095F7
:1024F00090915D02982390935D02089510925D0281
:10250000089590915C02892B80935C0208958095D8
:1025100090915C02982390935C02089510925C0263
:10252000089590915B02892B80935B0208958095BA
:1025300090915B02982390935B02089510925B0246
:10254000089580913A02089508950C94A4129091F0
:102550003A02981721F080933A020C94A51208953C
:1025600080913A02882329F010923A0280E00C947C
:10257000A5120895E0910001F091010180915D02A2
:102580008083E0910001F0910101808190915C02D3
:10259000892B8083E0910001F0910101808190916D
:1025A0005B02892B808390913A02992381F0E0911C
:1025B0000001F09101018081892B808380910001CD
:1025C000909101010E94CB1381110E94B012809161
:1025D0000001909101010C94230808950C94ED12D0
:1025E00098E0899F90011124622B609339020E9428
:1025F000E910809139028595859585950C94EE12A8
:102600001092390280E00C94EE129091390280957C
:10261000892380933902282F277071F4282F082EE0
:10262000000C330B9217130639F085958595859527
:102630000E940A110C940013089590E080E00E941B
:102640008D2021E08C3E9E4F09F020E0822F0895DE
:1026500082E090E00C948520682F82E090E00C945A
:10266000932083E090E00C948520682F83E090E035
:102670000C949320CF9384E090E00E948520C82F93
:1026800081E290E00E948520982F8C2FCF910895B1
:10269000CF93C92F682F84E090E00E9493206C2F85
:1026A00081E290E0CF910C949320AB01BC018FE0CC
:1026B00090E00C94A520AB01BC0183E190E00C9468
:1026C000A52060E070E0CB010C945B1360E070E04B
:1026D000CB010E9455130C9461136CEE7EEF90E0D9
:1026E00080E00E94B12060E082E090E00E949320B0
:1026F00060E083E090E00E949320109235021092F7
:102700003602109237021092380260E084E090E0C6
:102710000E94932060E081E290E00E94932060E0BC
:1027200085E090E00E94932060E086E090E00E94C7
:1027300093206FEF87E090E00E94932040E050E00C
:10274000BA0188E090E00E94A52060E08DE090E072
:102750000E94932040E050E0BA0188E190E00E949E
:10276000A52060E087E190E00E94932040E050E0E7
:10277000BA018CE190E00E94A52060E080E290E048
:102780000E9493200C9466130C946D13682F8EE0B6
:1027900090E00C949320FC013296809114018823E0
:1027A00021F08091C5029EE187FF96E080E0915084
:1027B00008F4089521912223D1F38F5FF8CF662387
:1027C00001F1209114012223F1F02091C50227FF8D
:1027D0001AC0462F4695469546954E3190F467703F
:1027E00021E030E002C0220F331F6A95E2F7840F28
:1027F000911DFC01828190E02823392381E0232B65
:1028000069F480E00895FC0132960896219126171C
:1028100021F0E817F907D1F7F4CF81E008959C0182
:10282000FC0132969FEF80E04191461751F09F3FA7
:1028300019F4411101C0982F8F5F8630A9F79F3F8F
:1028400009F40895290F311D97FD3A95F901628326
:102850000895FC01329608962191261303C0DF01EA
:1028600011971C92E817F907B9F70895E62FE69536
:10287000E695E695EE3168F4E80FF92FF11D6770E3
:1028800021E030E001C0220F6A95EAF78281822BB5
:1028900082830895E62FE695E695E695EE3170F48D
:1028A000E80FF92FF11D677021E030E001C0220F21
:1028B0006A95EAF720958281282322830895209142
:1028C0001401222329F02091C50227FD0C9436140F
:1028D0000C940F1420911401222329F02091C50299
:1028E00027FD0C944A140C942914FC013296809113
:1028F0001401882351F08091C50287FF06C08EE144
:10290000DF011D928A95E9F7089586E0F9CF0895D1
:1029100008950C9488140E9489148091CB0284300D
:1029200049F110925F0288E190E020E40FB6F8943C
:10293000A895809360000FBE2093600080E00E9405
:1029400099020E94891483B7817F846083BF83B713
:10295000816083BF7894889583B78E7F83BF0FB6DD
:10296000F894A8958091600088618093600010922F
:1029700060000FBE08950895CF930E9487140E94AF
:1029800056050E94BB14C0E08C2F0E940005892BC5
:1029900031F4CF5FCC30C1F780E0CF91089581E072
:1029A000FCCF08950C94D1140E94EF0C0E941708DC
:1029B0000E9499020C94D2141F921FB61F921124E8
:1029C0008F939F93AF93BF9380915F02811113C048
:1029D0008091C1029091C202A091C302B091C40241
:1029E0004196A11DB11D8093C1029093C202A09394
:1029F000C302B093C402BF91AF919F918F911F907A
:102A00001FBE1F90189582E084BD93E095BD9AEF9C
:102A100097BD80936E0008952FB7F8948091C102FE
:102A20009091C202A091C302B091C4022FBF089539
:102A30009C014FB7F8948091C1029091C202A0917D
:102A4000C302B091C4024FBF821B930B08957894C8
:102A50001F921FB61F9211248F939F93AF93BF9322
:102A60008091C1029091C202A091C302B091C402B0
:102A70000196A11DB11D8093C1029093C202A09343
:102A8000C302B093C402BF91AF919F918F911F90E9
:102A90001FBE1F90189581E08093E00080E2809334
:102AA000D8001092C9008FE19EE40197F1F700C0B1
:102AB000000087E090EBDC018093D4029093D50274
:102AC000A093D602B093D70288E19CE00FB6F894A9
:102AD000A895809360000FBE90936000FFCFAF92E7
:102AE000BF92CF92DF92EF92FF920F931F93CF93FB
:102AF000C0E0CC24C394D12CE82EF12C8C2F0E9462
:102B000000055C0110E000E0C601002E02C0880F45
:102B1000991F0A94E2F78A219B21892B99F40F5F70
:102B20001F4F0930110581F7CF5FCC3039F780E0B6
:102B3000CF911F910F91FF90EF90DF90CF90BF90BA
:102B4000AF900895602F7C2F80E00E94F102E8167C
:102B5000F90629F781E0ECCFCF93C82F8CE20E94D1
:102B60006F15882321F08C2FCF910C946F1580E086
:102B7000CF910895CF930E941D13811102C00E942E
:102B8000C413C5E608C00E9456058FE39CE901976F
:102B9000F1F700C00000C150B1F789E20E94AC1506
:102BA000811100C18AE20E94AC1581110E94C413F8
:102BB00085E00E94AC1581110E944B150E942813DC
:102BC00080935E0287E00E94AC15882371F08BE150
:102BD0000E94AC15882309F4C2C090915E02892F2F
:102BE0008D7F91FF826080935E0280915E020E94E1
:102BF0002C130E943A139093C6028093C50280EE74
:102C00000E94AC15882341F09091C502892F8E7FD8
:102C100090FF81608093C50289E30E94AC158823F0
:102C200041F09091C502892F8D7F91FF8260809342
:102C3000C50282EE0E94AC15882341F09091C50236
:102C4000892F8B7F92FF84608093C50286EE0E945D
:102C5000AC15882341F09091C502892F877F93FF9F
:102C600088608093C50283EE0E94AC15882341F0F2
:102C70009091C502892F8F7E94FF80618093C50259
:102C800085E30E94AC15882341F09091C502892FFD
:102C90008F7D95FF80628093C50281E30E94AC1511
:102CA000882341F09091C502892F8F7B96FF806425
:102CB0008093C50281E10E94AC15882341F0909178
:102CC000C502892F97FB87F980588093C5028091B0
:102CD000C5029091C6020E94481387E20E94AC157B
:102CE000C82F8EE10E94AC158111C2608FE10E9455
:102CF000AC158111C46080E20E94AC158111C860DE
:102D000081E20E94AC158111C06182E20E94AC1583
:102D10008111C06283E20E94AC158111C06484E21B
:102D20000E94AC158823C1F1C0688C2F0E94351316
:102D30006C2F70E090E080E00E9487108FE00E948E
:102D4000AC15882319F081E00E94C61385E10E942A
:102D5000AC15882339F180E0CF910C94C6138EE036
:102D60000E94AC15882339F090915E02892F8B7FE9
:102D700092FF846038CF80E10E94AC1590915E0292
:102D8000882329F0892F877F93FF88602CCF892F94
:102D90008E7F90FF816027CFC111C7CF0E94311372
:102DA000682FC7CFCF9108958091670280FF12C02E
:102DB0006091070185E0689FB001112475956795C2
:102DC0007595679560387105A8F561157105A1F1D4
:102DD000862F089581FF09C06091070185E0689FF3
:102DE000B001112475956795EDCF6091070182FDC3
:102DF0000AC0809166028823D1F09091060160910B
:102E00000701891728F085E0689FB0011124DACF07
:102E1000869FB001112485E0869F9001879F300D29
:102E20001124692F70E0C9010E945720CBCF65E0C3
:102E300070E0CECF8FE7089581E00895809167021A
:102E400080FF0CC06091030170E0759567957595E2
:102E500067956115710549F1862F089581FF06C0B8
:102E60006091030170E075956795F3CF6091030160
:102E700082FD0BC0909166029923A1F0609102013E
:102E800080910301961738F0682F70E06038710563
:102E900000F38FE70895899FC001112470E00E941C
:102EA0005720F4CF61E070E0D7CF81E00895803FF4
:102EB00031F40E94D416819580936B020895813F6E
:102EC00019F40E94D416F8CF823F31F40E94D41630
:102ED000819580936A020895833F19F40E94D41665
:102EE000F8CF893F29F40E941E1780936C02089541
:102EF0008A3F21F40E941E178195F7CF8B3F31F452
:102F00000E941E17819580936D0208958C3F19F4DD
:102F10000E941E17F8CF843F31F4809169028160CE
:102F2000809369020895853F21F48091690282604F
:102F3000F7CF863F21F4809169028460F1CF873F0B
:102F400021F4809169028860EBCF883F21F4809161
:102F500069028061E5CF8D3F31F480916702816025
:102F60008093670208958E3F21F48091670282600A
:102F7000F7CF8F3FB9F7809167028460F1CF9091CE
:102F80006A02803F41F480916B0287FD10926B02D0
:102F9000992371F00895813F29F480916B021816EE
:102FA000ACF3F6CF823F81F497FFF2CF10926A0222
:102FB00080916B0290916C02892B90916D02892B0C
:102FC00049F7109266020895833F19F4191674F3B5
:102FD000DFCF893F39F480916C021816CCF610923D
:102FE0006C02D6CF8A3F29F480916C0287FFD0CF44
:102FF000F6CF8B3F39F480916D0287FFC9CF1092D5
:103000006D02C6CF8C3F29F480916D021816BCF377
:10301000BFCF843F31F4809169028E7F8093690233
:10302000B7CF853F21F4809169028D7FF7CF863F2E
:1030300021F4809169028B7FF1CF873F21F4809149
:103040006902877FEBCF883F21F4809169028F7EF0
:10305000E5CF8D3F31F4809167028E7F80936702C8
:1030600097CF8E3F21F4809167028D7FF7CF8F3FFE
:1030700009F08ECF809167028B7FF0CF88E692E0D7
:103080000E943D080E940C15909365028093640293
:103090000895CF93DF9300D000D000D0CDB7DEB736
:1030A00086E0E8E6F2E0DE01119601900D928A9545
:1030B000E1F780916A0290916B02892B81F08091F7
:1030C0006202909163020E941815AC019091660211
:1030D000992331F1809108018417150670F18091D0
:1030E0006C0290916D02892B91F080916002909119
:1030F00061020E941815AC0190916602992309F4AF
:1031000078C0809104018417150608F480C02696C3
:103110000FB6F894DEBF0FBECDBFDF91CF910895FB
:10312000209109018AE0289F900111242417350776
:10313000B0F69F5F9093660202C09F3FD1F7109256
:103140006C0210926D0280916A02181624F40E949B
:10315000D41680936A0280916A0287FF05C00E949C
:10316000D416819580936A0280916B02181624F41C
:103170000E94D41680936B0280916B0287FF05C07A
:103180000E94D416819580936B0230916A0233239A
:10319000A1F020916B02222381F045EB3403C001A2
:1031A00011249923F1F090936A0245EB24039001D6
:1031B00011243323D1F030936B020E943E1880918A
:1031C000640290916502909363028093620286E0AC
:1031D000FE013196A8E6B2E001900D928A95E1F7E2
:1031E0007ECF81E080936A02E0CF81E080936B0222
:1031F000E4CF209105018AE0289F90011124241733
:10320000350708F084CF9F5F9093660202C09F3F0E
:10321000D1F710926A0210926B0280916C0218161C
:1032200024F40E941E1780936C0280916C0287FF29
:1032300005C00E941E17819580936C0280916D02DB
:10324000181624F40E941E1780936D0280916D025F
:1032500087FF05C00E941E17819580936D023091F3
:103260006C023323A1F020916D02222381F045EB03
:103270003403C00111249923F1F090936C0245EBC3
:103280002403900111243323D1F030936D020E9466
:103290003E18809164029091650290936102809340
:1032A000600286E0FE013196A8E6B2E001900D9240
:1032B0008A95E1F72CCF81E080936C02E0CF81E02A
:1032C00080936D02E4CF86E0E8E6F2E0DF011D9234
:1032D0008A95E9F71092660210926702089580912C
:1032E0008E020895CF93DF9300D00F92CDB7DEB753
:1032F0009091CB02943019F589837B836A8382E0B5
:103300008093E9008FEF9091E800815095FD06C011
:1033100095ED9A95F1F700008111F5CF8091E800C5
:1033200085FF0DC050E040E063E070E0CE01019603
:103330000E94C61B8091E8008E778093E8000F9072
:103340000F900F90DF91CF910895CF93DF93EC0111
:103350000E94A91B823011F0843031F4BE0184E058
:10336000DF91CF910C947219DF91CF910895BC0138
:1033700083E00C947219CF93DF93EC010E94A91B98
:10338000823011F08430F9F482E08093E9008FEF0D
:103390009091E800815095FD06C095ED9A95F1F762
:1033A00000008111F5CF8091E80085FF0CC050E04E
:1033B00040E066E070E0CE010E94C61B8091E8000C
:1033C0008E778093E800DF91CF910895CF93DF93BC
:1033D000EC010E94A91B823011F08430B9F5809174
:1033E00014018823B1F18091C50287FF32C060E2E9
:1033F00082E08093E9008FEF9091E800815095FD85
:1034000006C095ED9A95F1F700008111F5CF8091F6
:10341000E80085FF1BC08091140170E050E040E09F
:10342000811104C050E040E068E070E0CE010E94ED
:10343000C61B8091E8008E778093E80080E2FE0151
:10344000AEE6B2E001900D928A95E1F7DF91CF915F
:10345000089568E081E0CDCF8091CA02811109C052
:103460000E94561D0E94B31D8091E20084608093EB
:10347000E20008951092CA020895089508950C94E8
:10348000D41442E061EC81E00E94D21C42E261EC83
:1034900082E00C94D21C8091CD02833009F45FC08D
:1034A00030F48130C1F1823009F49BC008958A3034
:1034B00009F487C08B3009F46DC0893009F04EC023
:1034C0008091CC02813209F049C08091D002909164
:1034D000D102029708F042C08091E800877F809374
:1034E000E8008091E80082FF35C09091F300809160
:1034F000F200029729F48091F1008B7F813021F452
:103500008091F10080938E028091E8008B77809308
:10351000E8000C94061D8091CC02813AF9F4809168
:10352000E800877F8093E8008091D0029091D102DB
:10353000892B61F460E28EE692E070E00E94151C37
:103540008091E8008B778093E800089560E090E038
:1035500080E0F3CF8091CB028111C3CF0895809199
:10356000CC02813AD9F78091D0029091D102892B77
:10357000A9F78091E800877F8093E8008091E800B8
:1035800080FFFCCF809114018093F1008091E800CE
:103590008E77BDCF8091CC02813201F78091D0022D
:1035A0009091D102892BD1F68091E800877F80939A
:1035B000E8000E94061D8091CE02809314010C94B5
:1035C000EF0C8091CC02813249F68091E800877F30
:1035D0008093E8000E94061D8091CF0280938F02A5
:1035E00008958091CC02813A09F0B8CF8091E8002B
:1035F000877F8093E8008091E80080FFFCCF809176
:103600008F02C2CF84B7877F84BF0FB6F894A89586
:1036100080916000886180936000109260000FBE0E
:1036200080E890E00FB6F894809361009093610079
:103630000FBE0E9485080E94561D0E94B31D8091F6
:10364000E20084608093E20078940E943C200E9413
:103650008F088AE091E00E9412088091CB028530A9
:1036600019F00E949708F9CF0E948B148091C9022B
:10367000882399F30E94BC14882379F30E94B01B1D
:10368000ECCF0C94431B292F33272330310519F13C
:1036900068F42130310509F44AC02230310509F4BB
:1036A0004BC090E080E030E020E028C021323105BE
:1036B00079F122323105A9F780E490E029E933E07D
:1036C00061157105D9F08CEB90E02DED32E06130A1
:1036D0007105A1F0E6CF99278130910599F0009707
:1036E00041F08230910589F00397D9F6ECE5F2E0DC
:1036F00002C0ECE8F2E0849190E09F01FA0131838E
:1037000020830895EEE6F2E0F6CFE2E6F2E0F3CFB2
:1037100089E090E022EA32E06115710579F389E0F1
:1037200090E02BEB32E06130710541F3BACF82E1DA
:1037300090E02BEC32E0E2CF8BE390E020E932E046
:10374000DDCF8091CB02843011F482E0089581E0D6
:10375000089580919002811102C00C94A11B0895DC
:1037600080E189BD82E189BD09B400FEFDCF809171
:10377000D8008F7D8093D8008091E0008260809394
:10378000E0008091E00081FDFCCF0895AF92BF92F0
:10379000CF92DF92FF920F931F93CF93DF936C0131
:1037A000EB018A010E94251DF82E811123C001150D
:1037B000110539F0F80180819181C81BD90BC80E21
:1037C000D91EB12CA12C2097A9F08091E80085FD8D
:1037D00022C08091E8008E778093E80001151105E2
:1037E000A1F0F80180819181A80EB91EB182A0825A
:1037F00085E0F82E8F2DDF91CF911F910F91FF90D3
:10380000DF90CF90BF90AF9008950E94251D882330
:10381000D1F2F82EEFCFF60181916F018093F10084
:103820002197FFEFAF1ABF0ACECFFC018091D202E1
:103830009091D30286179707A0F06115710529F4BE
:103840009091E8009E779093E80090E061157105F3
:1038500051F4911108C08091E80082FF34C080E0EB
:103860000895BC01F2CF8091CB028823C1F185304D
:10387000C1F18091E80083FD30C08091E80082FDB5
:10388000EACF8091E80080FFE1CF8091F3002091A2
:10389000F200382F6115710519F02830310558F004
:1038A00091E02830310509F090E02091E8002E7772
:1038B0002093E800CBCF81918093F1006150710992
:1038C0002F5F3F4FE7CF8091CB02882341F08530B7
:1038D00041F08091E80083FFBECF81E0089582E04F
:1038E000089583E00895FC018091D2029091D30263
:1038F00086179707A0F06115710529F48091E800FB
:103900008E778093E80090E06115710551F4911174
:1039100008C08091E80082FF35C080E00895BC01B6
:10392000F2CF8091CB028823C9F18530C9F1809113
:10393000E80083FD31C08091E80082FDEACF8091EC
:10394000E80080FFE1CF8091F3002091F200382F52
:103950006115710519F02830310558F091E02830D3
:10396000310509F090E08091E8008E778093E800BF
:10397000CBCF84918093F1003196615071092F5F14
:103980003F4FE6CF8091CB02882341F0853041F054
:103990008091E80083FFBDCF81E0089582E0089523
:1039A00083E00895982F973028F08F708093E90076
:1039B00081E008959093E900242F762F50E0981726
:1039C00031F07091EC002091ED005091F00021FD5C
:1039D00002C09F5FE8CF3091EB003E7F3093EB0059
:1039E0003091ED003D7F3093ED003091EB00316080
:1039F0003093EB007093EC002093ED005093F000B7
:103A00002091EE0027FDE5CF80E008958091CC0263
:103A100087FF13C08091E80082FF06C08091E80014
:103A20008B778093E80004C08091CB028111F2CFA4
:103A300008958091CB028823D9F38091E80080FF1C
:103A4000F8CF8091E8008E77ECCF2091E4003091A0
:103A5000E50095E6A9012091EC00822F817020FFFE
:103A600006C08091E80080FF06C080E008952091A4
:103A7000E80022FD1AC08091CB02882389F08530AE
:103A800089F08091EB0085FD0FC02091E40030911A
:103A9000E50042175307F9F29150E1F684E00895EA
:103AA00082E0089583E0089581E008950E94C41D96
:103AB0000E94CC1DE0EEF0E0808181608083E8ED23
:103AC000F0E080818F77808319BCA7EDB0E08C9106
:103AD0008E7F8C9380818F7E80831092CA0208959E
:103AE0000F931F93CF93DF930E94C41D0E94CC1DA0
:103AF000C8EDD0E088818F7788838881806888834B
:103B000088818F7D888319BC1092CB021092C702E6
:103B10001092C9021092C80200EE10E0F8018081F4
:103B20008B7F808388818160888342E060E080E0D1
:103B30000E94D21CE1EEF0E080818E7F8083E2EE75
:103B4000F0E0808181608083808188608083F801DB
:103B500080818E7F8083888180618883DF91CF918F
:103B60001F910F910895E8EDF0E080818F7E8083B2
:103B7000E7EDF0E080818160808384E082BF81E0B6
:103B80008093CA020C94701DE8EDF0E080818E7F76
:103B900080831092E20008951092DA001092E10002
:103BA00008951F920F920FB60F9211242F933F93F7
:103BB0004F935F936F937F938F939F93AF93BF9335
:103BC000EF93FF938091E10082FF0BC08091E200B0
:103BD00082FF07C08091E1008B7F8093E1000E940B
:103BE0003B208091DA0080FF19C08091D80080FFCF
:103BF00015C08091DA008E7F8093DA008091D90021
:103C000080FF96C080E189BD82E189BD09B400FED4
:103C1000FDCF81E08093CB020E942C1A8091E100BD
:103C200080FF19C08091E20080FF15C08091E20002
:103C30008E7F8093E2008091E20080618093E200B9
:103C40008091D80080628093D80019BC85E0809371
:103C5000CB020E943E1A8091E10084FF2BC080912C
:103C6000E20084FF27C080E189BD82E189BD89B57A
:103C7000982F917080FFFBCF8091D8008F7D80932B
:103C8000D8008091E1008F7E8093E1008091E20076
:103C90008F7E8093E2008091E20081608093E20059
:103CA0008091C702882309F449C084E08093CB0245
:103CB0000E943F1A8091E10083FF29C08091E200B9
:103CC00083FF25C08091E100877F8093E10082E03F
:103CD0008093CB021092C7028091E1008E7F809387
:103CE000E1008091E2008E7F8093E2008091E2000B
:103CF00080618093E20042E060E080E00E94D21C9C
:103D00008091F00088608093F0000E943D1AFF913E
:103D1000EF91BF91AF919F918F917F916F915F9143
:103D20004F913F912F910F900FBE0F901F901895BC
:103D300019BC1092CB020E943A1A70CF8091E30016
:103D400087FD93E09093CB02B3CF1F920F920FB6F3
:103D50000F9211242F933F934F935F936F937F9311
:103D60008F939F93AF93BF93CF93DF93EF93FF9383
:103D7000D091E900DF708091EC00C82FC17080FD08
:103D8000C0E81092E9008091F000877F8093F000F6
:103D900078940E94E91E1092E9008091F0008860FA
:103DA0008093F000CD2BCF70C093E900FF91EF918D
:103DB000DF91CF91BF91AF919F918F917F916F9143
:103DC0005F914F913F912F910F900FBE0F901F90D9
:103DD00018951F93CF93DF93CDB7DEB7AA970FB691
:103DE000F894DEBF0FBECDBF8CEC92E02091F100C5
:103DF000FC012193CF01F2E0843D9F07B9F70E94B7
:103E00004B1A8091E80083FF1EC18091CC029091F3
:103E1000CD029A3008F017C1E92FF0E0E951FF4DCB
:103E20000C946B20803899F0823809F00CC1809195
:103E3000D0028F70873008F006C18093E90080912E
:103E4000EB0085FB882780F91092E90006C080917D
:103E5000C8029091C902911182609091E800977F09
:103E60009093E8008093F1001092F1008091E800B7
:103E70008E77E5C0882309F4D3C0823009F0E3C00F
:103E80008091CE028111D6C08091D0028F702FEF29
:103E9000280F263008F0D7C08093E9002091EB006E
:103EA00020FFC8C0933031F48091EB008062809392
:103EB000EB00C0C09091EB0090619093EB0021E08B
:103EC00030E001C0220F8A95EAF72093EA001092B1
:103ED000EA008091EB008860EACF8111B4C01091B4
:103EE000CE021F778091E3008078812B8093E300DE
:103EF0008091E800877F8093E8000E94061D8091F2
:103F0000E80080FFFCCF8091E30080688093E300AD
:103F100082E0111183E08093CB0295C080588230FB
:103F200008F091C08091CE029091CF028C3D23E0A9
:103F30009207A1F583E08A838AE289834FB7F894D8
:103F4000DE01139620E03EE051E2E32FF0E05093D3
:103F50005700E49120FF03C0E295EF703F5FEF70E0
:103F60008E2F90E0EA30C0F0C7968D939D932F5F1F
:103F7000243159F74FBF8091E800877F8093E80094
:103F80006AE270E0CE0101960E94151C8091E80063
:103F90008B778093E80057C0C096E7CF6091D0023E
:103FA0007091D102AE014F5F5F4F0E94411BBC0177
:103FB000892B09F448C09091E800977F9093E8001E
:103FC00089819A810E94731CE1CF8038E1F580914C
:103FD000E800877F8093E8008091C7028093F1001A
:103FE00045CF811130C09091CE02923060F5809122
:103FF000E800877F8093E8009093C7020E94061D27
:104000008091C702882311F084E005C08091E3000D
:1040100087FDFACF81E08093CB020E94411A13C042
:104020008091CE02813079F481E0933009F080E014
:104030008093C9021092E9008091E800877F809305
:10404000E8000E94061D8091E80083FF0AC080916D
:10405000E800877F8093E8008091EB008062809386
:10406000EB00AA960FB6F894DEBF0FBECDBFDF916E
:10407000CF911F9108950895CF938091CB0288230B
:10408000A1F0C091E900CF709091EC00892F817070
:1040900090FD80E8C82B1092E9008091E80083FD34
:1040A0000E94E91ECF70C093E900CF91089597FB5D
:1040B000072E16F4009407D077FD09D00E947120D6
:1040C00007FC05D03EF4909581959F4F089570951B
:1040D00061957F4F0895EE0FFF1F0590F491E02D3D
:1040E0000994AA1BBB1B51E107C0AA1FBB1FA6173F
:1040F000B70710F0A61BB70B881F991F5A95A9F791
:1041000080959095BC01CD010895F999FECF92BD9F
:1041100081BDF89A992780B50895A8E1B0E042E002
:1041200050E00C94B920262FF999FECF92BD81BDA5
:10413000F89A019700B4021639F01FBA20BD0FB6E5
:10414000F894FA9AF99A0FBE08950396272F0E94C1
:1041500094200E949320252F0E949420242F0C94B9
:1041600094200196272F0E9494200C949320DC0128
:10417000CB01FC01F999FECF06C0F2BDE1BDF89A72
:10418000319600B40D9241505040B8F70895F8941C
:10419000FFCFB80AB80A100B100B620B7E0BE50AB2
:1041A000E50A890B150C240C240C800CE50AE50AA1
:1041B000890CFE0CFE0C070D070D090D070D070DF0
:1041C000070DFE0CFE0C0E0D070D070D0E0D121F38
:1041D0003A1F23203A1F23206D1F8E1F2320E51F27
:0241E000F11FCD
:1041E2003B022808641E140A321E6F19E619BB1915
:1041F200B719A51901E200E900EA00B500B600B757
:1042020000CD008301CC008A019201940121022396
:104212000224022502260227022A02B300B4006FFA
:10422200007000818283979694956733363534F413
:10423200F6F7939266F0F531903091E200E900EAE8
:1042420000B500B600B700CD008301CC008A019210
:104252000194012102230224022502260227022AB6
:0C42620002B300B4006F00700081828382
:00000001FF
